:0E0000000C942F000C9400000C9400000C9443
:10000E0000000C9400000C9400000C9400000C9462
:10001E0000000C9400000C9400000C9400000C9452
:10002E0000000C9400000C9400000C9400000C9442
:10003E0000000C9400000C9400000C9400000C9432
:10004E0000000C9400003F065B4F666D7D077F6FCE
:10005E00F894EE27ECBBF1E0FBBFEBBFE5BF8DE004
:10006E00A2E0BB27ED938A95E9F780E098E0A0E641
:10007E00ED930197E9F7EFE5EDBFE8E0EEBFC0E6DF
:10008E00D2E00C944A006097E0E0E887E987EA87BF
:10009E00EB87EC87ED87EE87EF8705E010E020E039
:1000AE0030E040E050E0EFEFEABBE0E0EBBBEFEF1B
:1000BE00E4BBE5BBE0E0E7BBEFEFE8BBE0E0EE83DF
:1000CE00EF83AE81BF8158970CF075C0AE81BF81B2
:1000DE0074D0AF01AE81BF8175D09F01E0E0EC839B
:1000EE00ED83AC81BD81DC970CF05FC0AC81BD812E
:1000FE0064D0EC87FD87AC81BD8164D0EE87FF872D
:10010E00E0E0EA83EB83AA81BB81DC970CF047C069
:10011E00AA81BB8152D0E887F987AA81BB8152D0D0
:10012E00EA87FB87E0E0E883E983A881B9815497E9
:10013E0084F5AF98E885F9854AD0AF9AAE98EA85EE
:10014E00FB8545D0AE9AAD98E0E8EBBBD8010E9496
:10015E00F500AD9AAC98EC85FD8539D0AC9AAB988C
:10016E00EE85FF8534D0AB9AAA98E0E8EBBBD801B8
:10017E000E94F500AA9AA998FA0129D0A99AA898DE
:10018E00F90125D0A89AE881F9813196E883F9839F
:10019E00CCCFEA81FB813196EA83FB83B4CFEC812D
:1001AE00FD813196EC83FD839CCFEE81FF813196EC
:1001BE00EE83FF8386CF82CFFFCFEAE0F0E00E948E
:1001CE001B010895EAE0F0E00E9416010895EC5A32
:1001DE00FF4F04900BBAD8010C94F500109639F02D
:1001EE008AEF90E00197F1F7A8951197C9F7089556
:1001FE00F195E195F04008950024112490E1AA0FA5
:10020E00BB1F001C111C0E1A1F0A18F40E0E1F1E07
:10021E0001C0A1609A9599F7FD01D001089512D001
:10022E00EBDF0EF4E5DF0895E894B7FF04C0A09568
:10023E00B09511966894F7FDDBDFDEDFFD010EF45D
:10024E00D7DF0895E894F7FF02C0D2DF6894B7FFB6
:10025E0006C0A095B095119600F8039400FA089583
:00000001FF
